S00D00004C41425F352E73726563B4
S11300000C9434000C943E000C943E000C943E007E
S11300100C943E000C943E000C943E000C943E0064
S11300200C943E000C943E000C943E000C943E0054
S11300300C943E000C943E000C943E000C943E0044
S11300400C943E000C943E000C943E000C943E0034
S11300500C943E000C943E000C943E000C943E0024
S11300600C943E000C943E0011241FBECFEFD8E048
S1130070DEBFCDBF0E9440000C9497000C9400009A
S113008084B1826084B9E0E8F0E080818268808392
S1130090E1E8F0E080818A6180838FE39CE99093BA
S11300A0870080938600E8E8F0E087EE93E0918390
S11300B080832FE784E89EE1215080409040E1F75F
S11300C000C000008FEC97E0918380832FE784E8E1
S11300D09EE1215080409040E1F700C0000087EB92
S11300E09BE0918380832FE784E89EE12150804048
S11300F09040E1F700C000008FE99FE09183808386
S11301002FE784E89EE1215080409040E1F700C051
S1130110000087E893E1918380832FE784E89EE1E0
S1130120215080409040E1F700C00000BCCFF8941B
S1050130FFCFFB
S9030000FC
