S00D00004C41425F352E73726563B4
S11300000C9434000C943E000C943E000C943E007E
S11300100C943E000C943E000C943E000C943E0064
S11300200C943E000C943E000C943E000C943E0054
S11300300C943E000C943E000C943E000C943E0044
S11300400C943E000C943E000C943E000C943E0034
S11300500C943E000C943E000C943E000C943E0024
S11300600C943E000C943E0011241FBECFEFD8E048
S1130070DEBFCDBF0E9440000C9463000C940000CE
S11300808AB188608AB9A1EBB0E08C91877F8C93A8
S1130090E0EBF0E0808181608083808182608083F6
S11300A08C9184608C938C918D7F8C938C918160E6
S11300B08C9380818062808380818F7E80838AE0BC
S10D00C08093B400FFCFF894FFCF43
S9030000FC
