S00D00004C41425F352E73726563B4
S11300000C9434000C943E000C943E000C943E007E
S11300100C943E000C943E000C943E000C943E0064
S11300200C943E000C943E000C943E000C943E0054
S11300300C943E000C943E000C943E000C943E0044
S11300400C943E000C943E000C943E000C943E0034
S11300500C943E000C943E000C943E000C943E0024
S11300600C943E000C943E0011241FBECFEFD8E048
S1130070DEBFCDBF0E9440000C945E000C940000D3
S11300808AB180628AB985B5877F85BD84B582606F
S113009084BD84B5816084BD85B5846085BD85B526
S11300A08D7F85BD85B5816085BD84B5806284BD45
S11300B084B58F7E84BD8AE088BDFFCFF894FFCFDE
S9030000FC
