S00D00004C41425F352E73726563B4
S11300000C9434000C943E000C943E000C943E007E
S11300100C943E000C943E000C943E000C943E0064
S11300200C943E000C943E000C943E000C943E0054
S11300300C943E000C943E000C943E000C943E0044
S11300400C943E000C943E000C943E000C943E0034
S11300500C943E000C943E000C943E000C943E0024
S11300600C943E000C943E0011241FBECFEFD8E048
S1130070DEBFCDBF0E945A000C94AD000C9400006A
S11300800F931F93FC01E61BF70B021B130BE09F5E
S1130090C001E19F900DF09F900D1124FA01E61B21
S11300A0F70BBF010E949900C901860F971F1F918A
S11300B00F91089584B1826084B9ECE7F0E0808107
S11300C081648083EAE7F0E0808186688083E0E8E9
S11300D0F0E0808182688083E1E8F0E080818A61D9
S11300E080838FE39CE99093870080938600EAE7FE
S11300F0F0E080818064808380917A0086FDFCCF6B
S113010080917800909179000FE91FE02FEC37E09F
S11301104FEF53E060E070E00E944000909389004C
S11301208093880087EA91E60197F1F700C0000008
S1130130DECFAA1BBB1B51E107C0AA1FBB1FA6171A
S1130140B70710F0A61BB70B881F991F5A95A9F77C
S111015080959095BC01CD010895F894FFCFE1
S9030000FC
