S00D00004C41425F352E73726563B4
S11300000C9434000C943E000C943E000C943E007E
S11300100C943E000C943E000C943E000C943E0064
S11300200C943E000C943E000C943E000C943E0054
S11300300C943E000C943E000C943E000C943E0044
S11300400C943E000C943E000C943E000C943E0034
S11300500C943E000C943E000C943E000C943E0024
S11300600C943E000C943E0011241FBECFEFD8E048
S1130070DEBFCDBF0E9440000C94B1010C9400007F
S113008084B1826084B9ECE7F0E08081816480838C
S1130090EAE7F0E0808186688083E0E8F0E0808130
S11300A082688083E1E8F0E080818A6180838FE365
S11300B09CE99093870080938600EAE7F0E08081D2
S11300C08064808380917A0086FDFCCF6091780003
S11300D07091790080E090E00E94B60027E03FE54F
S11300E04CE950E40E941C010E948700673E83E0B3
S11300F0780710F467EE73E07093890060938800CA
S113010087EA91E60197F1F700C00000D6CF0E947C
S1130110FB0088F09F5798F0B92F9927B751B0F09A
S1130120E1F0660F771F881F991F1AF0BA95C9F777
S113013014C0B13091F00E941501B1E008950C94FF
S11301401501672F782F8827B85F39F0B93FCCF3B2
S1130150869577956795B395D9F73EF490958095F4
S1130160709561957F4F8F4F9F4F0895E89409C014
S113017097FB3EF490958095709561957F4F8F4FD6
S11301809F4F9923A9F0F92F96E9BB279395F695EC
S1130190879577956795B795F111F8CFFAF4BB0F6A
S11301A011F460FF1BC06F5F7F4F8F4F9F4F16C0CE
S11301B0882311F096E911C0772321F09EE8872F58
S11301C0762F05C0662371F096E8862F70E060E014
S11301D02AF09A95660F771F881FDAF7880F96958D
S11301E0879597F9089557FD9058440F551F59F076
S11301F05F3F71F04795880F97FB991F61F09F3F10
S113020079F087950895121613061406551FF2CF38
S11302104695F1DF08C0161617061806991FF1CF88
S113022086957105610508940895E894BB276627AF
S11302307727CB0197F908950E942F010C94A00110
S11302400E94920138F00E94990120F0952311F048
S11302500C9489010C948F0111240C9416010E94B2
S1130260F30070F3959FC1F3950F50E0551F629F03
S1130270F001729FBB27F00DB11D639FAA27F00DFB
S1130280B11DAA1F649F6627B00DA11D661F829F22
S11302902227B00DA11D621F739FB00DA11D621F07
S11302A0839FA00D611D221F749F3327A00D611D24
S11302B0231F849F600D211D822F762F6A2F112406
S11302C09F5750409AF0F1F088234AF0EE0FFF1F39
S11302D0BB1F661F771F881F91505040A9F79E3F90
S11302E0510580F00C9489010C9416015F3FE4F3EE
S11302F0983ED4F3869577956795B795F795E795E6
S11303009F5FC1F7FE2B880F911D9695879597F9EE
S1130310089597F99F6780E870E060E008959FEF83
S113032080EC089500240A94161617061806090688
S1130330089500240A941216130614060506089557
S1130340092E0394000C11F4882352F0BB0F40F4DF
S1130350BF2B11F460FF04C06F5F7F4F8F4F9F4F1F
S10903600895F894FFCF9C
S9030000FC
